:100000001AC02AC029C028C027C026C025C024C0C5
:1000100023C022C021C020C01FC01EC01DC01CC0E4
:100020001BC01AC019C00E11110E040E04000302E9
:1000300005040E11110E11241FBECFEDCDBF10E02F
:10004000A0E6B0E0E2E8F2E002C005900D92A6362C
:10005000B107D9F7B6D013C1D3CF969A82E08A956B
:10006000F1F700C0969885E88A95F1F700000895A9
:1000700098B39F7098BB98B3807F982B98BBEDCFB7
:10008000CF93C82F94989598F3DF8C2F8295807F1B
:10009000EFDF87EC90E00197F1F700C00000CF910F
:1000A0000895CF93C82F949A9598E2DF8C2F82956C
:1000B000807FDEDF87EC90E00197F1F700C0000061
:1000C000CF91089581E0DCDF8FE99FE00197F1F7A0
:1000D00000C000000895611102C0805801C0805422
:1000E000CFCFCF93DF93EC018991882311F0D9DF33
:1000F000FBCFDF91CF910895FF920F931F93CF9382
:10010000DF93660F660F660F6064EC0118E0160F50
:10011000FE01F49001E0060F862FB2DF8F2DC1DFC4
:100120002196602F0113F4CFDF91CF911F910F9192
:10013000FF90089587B3806F87BB81B3806781BBD1
:100140002FE788E391E0215080409040E1F700C024
:10015000000094989598969880E38ADF8FE097E264
:100160000197F1F700C0000080E382DF8BE291E0AD
:100170000197F1F700C0000080E37ADF8BE291E0A5
:100180000197F1F700C0000080E272DF8BE291E09E
:100190000197F1F700C0000088E272DF8CE070DFA9
:1001A00086E06EDF8FCF12B883E389B988E18AB920
:1001B00086E083B908955F9B02C08CB1089580E00A
:1001C0000895F1DFB7DF60E08EE290E095DF61E057
:1001D00086E290E091DFC12CD12CEE24EA94FF243A
:1001E000F39401E010E0DFE0C0E06CDF612F8C2FC2
:1001F00072DF80E056DF602F8D2F6DDF81E051DFF1
:10020000CF0DCF302CF41C162CF0FF24F39402C039
:10021000FF24FA94C0FC0AC0DE0DDF302CF41D165A
:100220002CF0EE24E39402C0EE24EA942FEFC21ADD
:10023000D20A84E1A82EB12CBEDF8032A9F4DC13EF
:1002400010C040DF85E81CDF80E690E04ADF8FEFDA
:1002500093ED20E3815090402040E1F700C0000082
:1002600003C0812F102F082F8FE19EE40197F1F733
:1002700000C0000091E0A91AB108F1F6B6CFF894D9
:02028000FFCFAE
:0602820042414259000058
:00000001FF
