:1000000012C022C021C020C01FC01EC01DC01CC005
:100010001BC01AC019C018C017C016C015C014C024
:1000200013C012C011C011241FBECFEDCDBF10E010
:10003000A0E6B0E0E2E9F2E002C005900D92A6373A
:10004000B107D9F7B1D023C1DBCF969A82E08A9568
:10005000F1F700C0969885E88A95F1F700000895B9
:1000600098B39F7098BB98B3807F982B98BBEDCFC7
:10007000CF93C82F662311F0949A01C09498959855
:100080008C2FEEDF8C2F8295807FCF91E9CF87B3C5
:10009000806F87BB81B3806781BB2FE788E391E0E6
:1000A000215080409040E1F700C00000949895985E
:1000B000969880E3D5DF8FE097E20197F1F700C0D3
:1000C000000080E3CDDF8BE291E00197F1F700C003
:1000D000000080E3C5DF8BE291E00197F1F700C0FB
:1000E000000080E2BDDF8BE291E00197F1F700C0F4
:1000F000000060E088E2BCDF8FE99FE00197F1F744
:1001000000C0000060E08CE0B3DF8FE99FE0019762
:10011000F1F700C0000060E086E0AADF60E081E067
:10012000A7DF8FE39CE90197F1F700C00000089575
:10013000811102C080E801C080EC860F60E098CF9A
:10014000CF93DF93EC018991882319F061E090DF70
:10015000FACFDF91CF9108950F931F93CF93DF9341
:100160008B01880F880F880F60E0805C81DFE801D9
:10017000085F1F4F61E089917BDFC017D107D1F77E
:1001800060E080E8DF91CF911F910F9171CF92B91C
:1001900089B988E18AB986E083B908955F9B02C076
:1001A0008CB1089580E0089583E390E0F0DF6FDF85
:1001B00068E670E080E0D0DF60E670E081E0CCDFF0
:1001C000C12CD12CEE24EA94FF24F39401E010E03A
:1001D000DFE0C0E060E081E04BDF8FE99FE0019766
:1001E000F1F700C000006C2F812FA2DF61E080E0FA
:1001F0003FDF6D2F802F9CDF61E081E039DFCF0D85
:10020000CF302CF41C162CF0FF24F39402C0FF24F2
:10021000FA94C0FC0AC0DE0DDF302CF41D162CF061
:10022000EE24E39402C0EE24EA949FEFC91AD90A9F
:1002300084E1A82EB12CB2DF8032F1F4DC1319C0B6
:1002400060E081E015DF8FE99FE00197F1F700C0E2
:10025000000060E086E80CDF80E790E071DF9FEF50
:1002600023ED80E3915020408040E1F700C0000082
:1002700003C0812F102F082F8FE19EE40197F1F723
:1002800000C0000091E0A91AB108A9F6A3CFF89424
:02029000FFCF9E
:100292000E11110E040E0400030205040E11110EBC
:0602A20042414259000038
:00000001FF
