:100000001AC02AC029C028C027C026C025C024C0C5
:1000100023C022C021C020C01FC01EC01DC01CC0E4
:100020001BC01AC019C00E11110E040E04000302E9
:1000300005040E11110E11241FBECFEDCDBF10E02F
:10004000A0E6B0E0E2E9F2E002C005900D92A6362B
:10005000B107D9F7B6D01BC1D3CF969A82E08A9563
:10006000F1F700C0969885E88A95F1F700000895A9
:1000700098B39F7098BB98B3807F982B98BBEDCFB7
:10008000CF93C82F94989598F3DF8C2F8295807F1B
:10009000EFDF87EC90E00197F1F700C00000CF910F
:1000A0000895CF93C82F949A9598E2DF8C2F82956C
:1000B000807FDEDF87EC90E00197F1F700C0000061
:1000C000CF91089581E0DCDF8FE99FE00197F1F7A0
:1000D00000C000000895611102C0805801C0805422
:1000E000CFCFCF93DF93EC018991882311F0D9DF33
:1000F000FBCFDF91CF910895FF920F931F93CF9382
:10010000DF93660F660F660F6064EC0118E0160F50
:10011000FE01F49001E0060F862FB2DF8F2DC1DFC4
:100120002196602F0113F4CFDF91CF911F910F9192
:10013000FF90089587B3806F87BB81B3806781BBD1
:100140002FE788E391E0215080409040E1F700C024
:10015000000094989598969880E38ADF8FE097E264
:100160000197F1F700C0000080E382DF8BE291E0AD
:100170000197F1F700C0000080E37ADF8BE291E0A5
:100180000197F1F700C0000080E272DF8BE291E09E
:100190000197F1F700C0000088E272DF8CE070DFA9
:1001A00086E06EDF8FCF12B883E389B988E18AB920
:1001B00086E083B908955F9B02C08CB1089580E00A
:1001C0000895F1DFB7DF60E08EE290E095DF61E057
:1001D00086E290E091DF76DF80E852DF80E061DF49
:1001E0008FEC4EDF81E05DDFE12CF12CCC24CA9452
:1001F000DD24D39411E000E0CFE0D0E0DCDF8032FA
:10020000B9F4DC1311C05EDF85E83ADF80E690E0E8
:1002100068DF2FEF83ED90E3215080409040E1F7BD
:1002200000C000004FDF04C04DDF802F012F182FCA
:10023000602F8D2F50DF80E234DF612F8C2F4BDF5A
:1002400080E22FDFDD0D8FEF8D0F8E3008F0D1941F
:10025000E0FC06C0CC0D8FEF8C0F8E3008F0C194FF
:100260002FEFE21AF20A602F8D2F35DF80E019DFC1
:10027000612F8C2F30DF81E014DF8FEF91EE24E0CF
:10028000815090402040E1F700C00000B7CFF894C3
:02029000FFCF9E
:0602920042414259000048
:00000001FF
